:020000040000FA
:100000000C945D000C9485000C9485000C94850084
:100010000C9485000C9485000C94260E0C9485009D
:100020000C9485000C9485000C9485000C9485003C
:100030000C9485000C9485000C9485000C9485002C
:100040000C94CC020C9485000C943C030C94160385
:100050000C9485000C9485000C9485000C9485000C
:100060000C9485000C94850000000008000201003B
:100070000003040700000000000000000000000072
:10008000250028002B0000000000240027002A0083
:10009000040404040404040402020202020203032E
:1000A0000303030301020408102040800102040836
:1000B0001020010204081020850E11241FBECFEF6E
:1000C000D8E0DEBFCDBF11E0A0E0B1E0E2E2F0E2B7
:1000D00002C005900D92A834B107D9F722E0A8E438
:1000E000B1E001C01D92A737B207E1F710E0CDE5FE
:1000F000D0E004C02197FE010E94F90FCC35D10752
:10010000C9F70E94290E0C940F100C94000090E087
:10011000FC01EC55FF4F249180579F4FFC018491C7
:10012000882399F090E0880F991FFC01EA57FF4F50
:10013000A591B491FC01E458FF4F859194918FB73C
:10014000F894EC91E22BEC938FBF089590E0FC01C2
:10015000E859FF4F2491FC01EC55FF4F3491FC010D
:10016000E057FF4FE491EE23C9F0222339F023300A
:1001700001F1A8F4213019F1223029F1F0E0EE0F5D
:10018000FF1FE458FF4FA591B4918FB7F894EC91FD
:10019000611126C030953E233C938FBF08952730D0
:1001A000A9F02830C9F0243049F7809180008F7D74
:1001B00003C0809180008F7780938000DFCF84B56B
:1001C0008F7784BDDBCF84B58F7DFBCF8091B0006E
:1001D0008F778093B000D2CF8091B0008F7DF9CF20
:1001E0003E2BDACFAF92BF92CF92DF92EF92FF9287
:1001F0000F931F93CF93DF936C017B018B01040F4F
:10020000151FEB015E01AE18BF08C017D10759F0EA
:100210006991D601ED91FC910190F081E02DC6012C
:100220000995892B79F7C501DF91CF911F910F9126
:10023000FF90EF90DF90CF90BF90AF900895FC01BA
:10024000538D448D252F30E0842F90E0821B930B3B
:10025000541710F0CF96089501970895FC01918DE1
:10026000828D981761F0A28DAE0FBF2FB11D5D96E4
:100270008C91928D9F5F9F73928F90E008958FEF86
:100280009FEF0895FC01918D828D981731F0828D3A
:10029000E80FF11D858D90E008958FEF9FEF089591
:1002A000FC01918D228D892F90E0805C9F4F821BF5
:1002B00091098F739927089586ED91E00E9450016E
:1002C00021E0892B09F420E0822F08950E945C012F
:1002D00081110C940000089580E090E0892B11F0CA
:1002E0000C9466010895FC01A48DA80FB92FB11DCF
:1002F000A35ABF4F2C91848D90E001968F7399275C
:10030000848FA689B7892C93A089B1898C91837039
:1003100080648C93938D848D981306C00288F38932
:10032000E02D80818F7D80830895EF92FF920F935F
:100330001F93CF93DF93EC0181E0888F9B8D8C8D91
:1003400098131AC0E889F989808185FF15C09FB785
:10035000F894EE89FF896083E889F9898081837048
:10036000806480839FBF81E090E0DF91CF911F91F7
:100370000F91FF90EF900895F62E0B8D10E00F5F18
:100380001F4F0F731127E02E8C8D8E110CC00FB6EE
:1003900007FCFACFE889F989808185FFF5CFCE0186
:1003A0000E947301F1CFEB8DEC0FFD2FF11DE35A8D
:1003B000FF4FF0829FB7F8940B8FEA89FB89808109
:1003C0008062CFCFCF93DF93EC01888D8823B9F083
:1003D000AA89BB89E889F9898C9185FD03C0808150
:1003E00086FD0DC00FB607FCF7CF8C9185FFF2CFCD
:1003F000808185FFEDCFCE010E947301E9CFDF91AF
:10040000CF910895FC0101900020E9F73197AF01E9
:10041000481B590BBC0186ED91E00C94F200CF9380
:10042000DF93CDB7DEB7A1970FB6F894DEBF0FBE4E
:10043000CDBFC12CD12C7601C3949AE0892E912C8A
:10044000A12CB12C19A2A70196018E010F5D1F4F9F
:10045000CA01B901A50194010E94D70F605DF8019E
:1004600062938F01211531054105510589F73097B8
:1004700019F0CF010E94020289E191E00E9402027C
:100480008FE190E00E948C08FFEFCF1ADF0AEF0A9D
:10049000FF0AD8CF87E00E9487008CE191E00E949C
:1004A000020289E191E00E94020261E087E00E947D
:1004B000A60082E190E00E948C0860E087E00E9444
:1004C000A60082E190E00E948C08E7CF8DE00E94B8
:1004D000870082E291E00E94020289E191E00E949D
:1004E000020261E08DE00E94A6008CE090E00E9494
:1004F0008C0860E08DE00E94A6008CE090E00E94F5
:100500008C08E7CF0F931F93E6EDF1E0A089B18946
:1005100082E08C93A485B5851C92A685B7858FEC67
:100520008C93108EA489B58986E08C93A289B389B7
:100530008C9180618C93A289B3898C9188608C9313
:10054000A289B3898C9180688C930288F389E02D0D
:1005500080818F7D808310E000E021E040E850E062
:1005600065E371E086E692E00E94320C21E040E80B
:1005700050E06BE371E08AE492E00E94320C21E0EB
:1005800040E850E061E471E08FE092E00E94320CBC
:100590001F910F910C945A0D1F920F920FB60F924C
:1005A00011242F933F938F939F93AF93BF93809189
:1005B000790190917A01A0917B01B0917C013091F9
:1005C000780123E0230F2D3758F50196A11DB11DA9
:1005D000209378018093790190937A01A0937B0115
:1005E000B0937C018091740190917501A091760186
:1005F000B09177010196A11DB11D80937401909374
:100600007501A0937601B0937701BF91AF919F914F
:100610008F913F912F910F900FBE0F901F901895C3
:1006200026E8230F0296A11DB11DD2CF1F920F9273
:100630000FB60F9211242F933F934F935F936F93B5
:100640007F938F939F93AF93BF93EF93FF9386ED29
:1006500091E00E947301FF91EF91BF91AF919F9143
:100660008F917F916F915F914F913F912F910F905B
:100670000FBE0F901F9018951F920F920FB60F92FA
:1006800011242F938F939F93EF93FF93E091E601B3
:10069000F091E7018081E091EC01F091ED0182FDA4
:1006A0001BC090818091EF018F5F8F732091F001CB
:1006B000821741F0E091EF01F0E0EA52FE4F958F92
:1006C0008093EF01FF91EF919F918F912F910F9068
:1006D0000FBE0F901F9018958081F4CFE0917F019D
:1006E000F09180018081811107C08FEF9FEF90937F
:1006F0006801809367010895E0917F01F091800186
:100700000580F681E02D80819181F1CFCF93DF9339
:10071000DC011596ED91FC910680F781E02DA4890E
:10072000B5898685978520893189EC013D832C83A5
:10073000C089D1899B838A83CF010C9611962D9114
:100740003C9112972817390721F41296DC93CE9327
:100750001197158A148A2C9121502C9320916501B0
:10076000211157C0A285B385848195812681378167
:10077000EC013D832C83C681D7819B838A83CF0183
:10078000029611962D913C9112972817390721F462
:100790001296DC93CE931197138612862C912150DA
:1007A0002C93C6892091D2012C1710F4C093D2014A
:1007B00029E02C9FE0011124C255DE4F0980DA8127
:1007C000C02DD583C4834C815D8157834683AC8122
:1007D000BD8113969C938E9312979D838C83A689DB
:1007E000A29FD0011124A255BE4FB387A2878C913E
:1007F0008F5F8C93A0914801B091490196895696DC
:100800008C91891730F581E080936401DF91CF915D
:100810000895A0919401B0919501B787A687149689
:100820002D913C911597318B208B1496CD91DC91B5
:1008300015979B838A8315969C938E93149783E9CF
:1008400091E0958B848B809193018F5F80939301CE
:10085000D1CF80E0DBCF0FB6F8940F9280916B017F
:1008600090916C010F900FBE0895809165018F5F8C
:100870008093650108950FB6F8940F92FC01928D54
:100880000F900FBE81E0911180E00895EF92FF92EA
:100890000F931F93CF93DF93EC010FB6F8940F9251
:1008A0001E8D7C0181E1E80EF11C01E01116D4F0EF
:1008B0008FEF8E8F0F900FBE0FB6F8940F921D8D95
:1008C0007E0188E0E80EF11C01E01116B4F08FEF14
:1008D0008D8F0F900FBEDF91CF911F910F91FF90E1
:1008E000EF9008958989882319F3C7010E94860330
:1008F0008111009364011150D9CF8885882339F381
:10090000C7010E9486038111009364011150DDCF5D
:10091000CF93DF93FC01A085B185828193812481EF
:100920003581EC013D832C83C481D5819B838A83EF
:1009300011968D919C9112978E179F0721F4129614
:10094000DC93CE931197118610868C9181508C93F5
:100950008C91DF91CF9108950F931F93CF93DF93E5
:100960008C01FB0180819181D80113968F3F9807FC
:10097000F1F4E801AF81B88512968D919C9113979F
:1009800093838283EC01FD83EC83B583A483139668
:10099000FC93EE93129711870087F80180818F5F97
:1009A0008083DF91CF911F910F910895D901129605
:1009B0002D913C911397E90148815981841795073E
:1009C000A8F7DACFFC01738362839187808746178B
:1009D000570790F0421B530B84859585481759079C
:1009E000C8F4BF016E5F7F4F8091700190917101DB
:1009F0000E94AC0480E008954217530718F4621770
:100A0000730740F4BF016E5F7F4F80917201909138
:100A10007301EECF81E00895EF92FF920F931F9341
:100A2000CF93DF93EC018B017A016C857D85600F9C
:100A3000711F9801A701CE010E94E204811107C035
:100A4000DF91CF911F910F91FF90EF9008958C85CA
:100A50009D85080F191FE889F989CE010995E5CF11
:100A6000EF92FF920F931F93CF93DF938C017B0143
:100A7000E0917201F09173010580F681E02DC6814D
:100A8000D781CE0102960E9488048A8982FF0FC016
:100A9000A701B801CE010E940C05E889F989CE01B1
:100AA000DF91CF911F910F91FF90EF9009948E7F6E
:100AB0008A8BF3CFE0917201F091730180818111F3
:100AC0000DC080917001909171019093730180939A
:100AD0007201F0937101E093700108950580F68131
:100AE000E02D6FEF7FEF808191810E943005E2CF92
:100AF000FF920F931F93CF93DF93EC01F62E00919B
:100B00006B0110916C01809148019091490102960E
:100B10000E948804CF3FDC07E9F5FF20D9F1E0917E
:100B20008201F0918301A0914801B091490115968D
:100B3000FC93EE931497A0914801B09149018481F0
:100B4000958117969C938E9316978091480190916A
:100B50004901A481B581029613969C938E931297B6
:100B60008091480190914901029695838483E09198
:100B70004801F091490181E891E093878287809153
:100B800081018F5F80938101DF91CF911F910F9140
:100B9000FF900895C00FD11FE0914801F0914901E5
:100BA000D383C2836091480170914901C017D10776
:100BB00068F480917D0190917E016E5F7F4FDF919F
:100BC000CF911F910F91FF900C94AC0480917F0105
:100BD000909180016E5F7F4F0E94AC04809167010D
:100BE00090916801C817D90778F6D0936801C0932F
:100BF0006701CACFFC010396928381832FEF3FEFF9
:100C00003483238396838583908787831082089516
:100C10000F920FB6F8940F921F9211242F923F92C9
:100C20004F925F926F927F928F929F92AF92BF92FC
:100C3000CF92DF92EF92FF920F931F932F933F93E8
:100C40004F935F936F937F938F939F93AF93BF93D4
:100C5000CF93DF93EF93FF93A0914801B0914901A7
:100C60000DB60D920EB60D9280916501882321F08C
:100C700081E0809364015DC010926401A0914801FD
:100C8000B0914901E0914801F09149012D913C91C9
:100C90008789908D82179307A8F0809148019091E1
:100CA00049018091480190914901259A2D9A2FEF91
:100CB00087EA91E6215080409040E1F700C00000B3
:100CC0001D9AF5CF2091D20189E001C02150422F19
:100CD00050E0849FF001859FF00D1124E255FE4FF6
:100CE0009081992399F3A181B28112966D917C91A3
:100CF00072836183289FC00111248F549E4F68170F
:100D0000790721F4858196819283818389E0849F8C
:100D1000F001859FF00D1124E255FE4F0180F28114
:100D2000E02D86819781909349018093480120931B
:100D3000D201A0914801B0914901CD91CDBFDD9183
:100D4000DEBFFF91EF91DF91CF91BF91AF919F9166
:100D50008F917F916F915F914F913F912F911F9153
:100D60000F91FF90EF90DF90CF90BF90AF909F904A
:100D70008F907F906F905F904F903F902F901F903B
:100D80000F900FBE0F9008958F929F92BF92CF92B7
:100D9000DF92EF92FF920F931F93CF93DF930FB6E3
:100DA000F8940F9280916501815080936501809144
:100DB0006501882379F080E00F900FBEDF91CF911D
:100DC0001F910F91FF90EF90DF90CF90BF909F9079
:100DD0008F9008958091D501882369F3E090980160
:100DE000F0909901F0E0E0E039E041E0809193017A
:100DF00081115EC0EF2B11F00E946E03E090620142
:100E0000F0906301E114F10409F47DC189E0D82E6A
:100E1000CC24C3940FEF1FEF80916501811161C154
:100E2000C0916B01D0916C014E018FEF881A980A26
:100E300090926C0180926B0181149104B9F48091BD
:100E40007F019091800120917D0130917E0130934E
:100E5000800120937F0190937E0180937D0180919A
:100E60006D018F5F80936D010E946E038091670119
:100E700090916801B12C8816990608F026C1E0917E
:100E80004801F0914901E689DE9EF0011124E25506
:100E9000FE4F8081823010F0BB24B39480916401B6
:100EA000811103C0BB2009F425C1C092640122C195
:100EB000D7011696ED91FC91A489B5896685778551
:100EC00080899189EB019D838C8380899189EC01D4
:100ED0007B836A83BF01645F7F4F11960D911C91E4
:100EE00012970617170721F412969C938E93119769
:100EF000158A148A8C9181508C93A285B385848144
:100F0000958166817781EC017D836C836681778131
:100F1000EB019B838A83CF01029611960D911C9160
:100F200012970817190721F412967C936E93119764
:100F3000138612862C9121502C93A6892091D201E0
:100F40002A1710F4A093D2013A9FD0011124A25580
:100F5000BE4F11960D90BC91A02DB583A48314961D
:100F60006D917C9115977783668314966D917C9132
:100F70001597EB019B838A8315969C938E93149708
:100F80009689939FD0011124A255BE4FB387A287A3
:100F90008C918F5F8C93A0914801B0914901569636
:100FA0008C91891708F022CF409364011FCFE09104
:100FB0007F01F09180010580F681E02D0680F781A8
:100FC000E02D828193818816990628F49093680118
:100FD0008093670154CFC285D38584819581268112
:100FE0003781DC0115963C932E9314972681378127
:100FF000D90113969C938E931297CF010296498143
:101000005A814817590711F43A83298313861286A7
:10101000288121502883A489B5891097F9F0268565
:10102000378540895189E9015D834C834089518925
:10103000EA013B832A8311966D917C9112979F015F
:10104000245F3F4F6217730721F412965C934E930F
:101050001197158A148A2C9121502C93A6892091DE
:10106000D2012A1710F4A093D201DA9ED0011124E4
:10107000A255BE4F11960D90BC91A02DB583A483AF
:1010800014962D913C9115973783268314962D91B4
:101090003C911597E9019B838A8315969C938E93C7
:1010A000149796899D9DD0011124A255BE4FB387F8
:1010B000A2878C918F5F8C93E0914801F091490158
:1010C0008689891710F4BB24B394E0917F01F091D5
:1010D0008001808181116BCF1093680100936701BB
:1010E000CECE80916201909163010196909363014D
:1010F00080936201D1E0ED1AF10809F08DCE1092D3
:1011000063011092620180916401882309F453CE37
:101110000E94080681E050CECF93DF93EC010E943D
:10112000350460E0CE010E9478050E94C40681115A
:1011300002C00E940806DF91CF9108950F920FB66A
:10114000F8940F921F9211242F923F924F925F9228
:101150006F927F928F929F92AF92BF92CF92DF92C7
:10116000EF92FF920F931F932F933F934F935F93B1
:101170006F937F938F939F93AF93BF93CF93DF939F
:10118000EF93FF93A0914801B09149010DB60D92E4
:101190000EB60D9213BE809165018111F9C0809148
:1011A0006B0190916C01019690936C0180936B019F
:1011B000009781F520917F013091800140917D0160
:1011C00050917E015093800140937F0130937E01C6
:1011D00020937D0120916D012F5F20936D01E0919F
:1011E0007F01F09180012081211107C02FEF3FEF97
:1011F00030936801209367010DC0E0917F01F09169
:1012000080010580F681E02D2081318130936801D5
:10121000209367012091670130916801821793073D
:1012200010F420E0A1C020E039E0D32EE0917F014E
:10123000F09180013081311107C08FEF9FEF9093C3
:1012400068018093670190C0E0917F01F091800177
:101250000580F681E02D0680F781E02D42815381E3
:101260008417950728F450936801409367017CC068
:10127000A285B3854481558166817781EA017D83AA
:101280006C8366817781EB015B834A83AF014E5F9C
:101290005F4F11960D911C9112970417150721F4B9
:1012A00012967C936E931197138612863C9131505F
:1012B0003C93A489B5891097F9F0668577850089F4
:1012C0001189EB011D830C8300891189E8017B835F
:1012D0006A831196ED90FC901297BF01645F7F4F77
:1012E000E616F70621F412961C930E931197158AB1
:1012F000148A3C9131503C93A6893091D2013A171F
:1013000010F4A093D201DA9ED0011124A255BE4F51
:1013100011960D90BC91A02DB583A48314966D9168
:101320007C9115977783668314966D917C911597C0
:10133000EB015B834A8315965C934E931497468921
:101340004D9DD0011124A255BE4FB387A2873C9179
:101350003F5F3C93E0914801F09149013689341791
:1013600008F064CF21E062CFE0914801F09149019B
:10137000E689D9E0ED9FF0011124E255FE4F80810E
:10138000823008F021E08091640181110EC00AC012
:101390008091620190916301019690936301809323
:1013A000620168C0222309F465C080916501882329
:1013B00021F081E0809364015DC010926401A091EE
:1013C0004801B0914901E0914801F09149012D9106
:1013D0003C918789908D82179307A8F080914801EE
:1013E000909149018091480190914901259A2D9A47
:1013F0002FEF87EA91E6215080409040E1F700C04E
:1014000000001D9AF5CF2091D20189E001C0215042
:10141000422F50E0849FF001859FF00D1124E2558A
:10142000FE4F9081992399F3A181B28112966D911B
:101430007C9172836183289FC00111248F549E4F39
:101440006817790721F4858196819283818389E0E9
:10145000849FF001859FF00D1124E255FE4F01801D
:10146000F281E02D86819781909349018093480114
:101470002093D201A0914801B0914901CD91CDBFF7
:10148000DD91DEBFFF91EF91DF91CF91BF91AF91E1
:101490009F918F917F916F915F914F913F912F918C
:1014A0001F910F91FF90EF90DF90CF90BF90AF9082
:1014B0009F908F907F906F905F904F903F902F9074
:1014C0001F900F900FBE0F900895CF93DF9300975A
:1014D00051F0EC010E943504CE010E944E0FDF91C5
:1014E000CF910C94C406DF91CF910895CF93DF93F1
:1014F00000D000D01F92CDB7DEB7E0917201F0911D
:1015000073011081F12CE12C112329F00580F68163
:10151000E02DE080F1800E9435040E942B046C01D4
:101520008091690190916A01C816D90608F085C0BA
:101530000E945A05D0926A01C09269010E94C406B5
:1015400000916E0110916F010FB6F8940F92D801BF
:101550005A96FC905A97FF2009F430C15C964C9142
:101560005C97442301F150E016968D919C9117975A
:10157000840F951F17969C938E93169714962D9112
:101580003C9115978217930738F08D919C91119794
:1015900017969C938E931697F80166817781CE01FA
:1015A00001960E94FF0FFA94D8015A96FC925A971E
:1015B00018968C91882339F0C80108960E948603FA
:1015C00081110E9408060F900FBED980D7FCB8CFBA
:1015D0000C811D81D8011A968D919C91892B21F047
:1015E000C80102960E9488040E942B047C0180910D
:1015F000690190916A01E816F90610F40E945A05F3
:10160000F0926A01E0926901EFEFED0DE93008F028
:1016100097CF0E2E000CFF0BEC5EF44FD8015296C4
:101620008C9152970C94F90F970B970BDA0BC20B16
:10163000D40B970B970BDA0BC20BD0926A01C092B6
:101640006901112351F0CE14DF0470F00E94C4062A
:10165000B601C7010E94300573CFE0917001F0918F
:101660007101808161E0811160E000916E01109153
:101670006F010FB6F8940F92D8015D968C915D972B
:101680008F3F11F45D961C92F801868D8F3F09F40F
:10169000168E0F900FBED8015A968C915A978111D1
:1016A0003CC05296ED91FC91A0914801B091490146
:1016B0001F96FC93EE931E97A0914801B0914901AB
:1016C0008481958151969C938E9350978091480187
:1016D00090914901A481B5810C9613969C938E93A9
:1016E000129780914801909149010C9695838483CB
:1016F000E0914801F0914901C8014196958B848B96
:10170000F80181898F5F818BC7018C199D09662340
:1017100011F08FEF9FEF0E947805C8010E944604E8
:101720000E94C40681110CCF0E94080609CF816077
:10173000F801828BCA80DB80648575856C0D7D1D08
:101740009601A701C8010E94E204882309F4F8CE9B
:10175000D80152968C91529782FF10C01C966D91C1
:101760007C916C0D7D1DA701C8010E940C05D8015C
:101770005096ED91FC91C8010995E2CE8E7FF8015B
:10178000828BF5CF816052968C9352976A817B81D0
:101790001D967C936E931C976E0D7F1D9701A7017C
:1017A000C8010E94E204CCCE81FD04C0C8010E94A1
:1017B000650AC6CE8E7FF801828BC2CE0F900FBE17
:1017C0009CCE00E010E08091660181110CC08091F8
:1017D000AE01823010F00E9408060115110599F340
:1017E0000E946601F0CF0FB6F8940F92E0918F013E
:1017F000F0919001C681D781CE0102960E948804A3
:101800008091D50181508093D501809166018150EE
:10181000809366010F900FBE8F89988D0E94650A94
:10182000CE010E94650ACFCFCF93DF93EC010E94D7
:101830003504CE010E94B20EEC010E94C40620972E
:1018400069F4259A2D9A2FEF80E792E0215080408D
:101850009040E1F700C000001D9AF5CFCE01DF9166
:10186000CF9108957F928F929F92AF92BF92CF9225
:10187000DF92EF92FF920F931F93CF93DF93982EF7
:10188000A92E762E872E7A01B22ECA010E94140C40
:101890006C01892B09F4EDC088E290E00E94140CE1
:1018A000EC01892B09F4E2C088E2DE011D928A95E1
:1018B000E9F7D88ECF8AA70165EA70E0C6010E94D9
:1018C0000810B1E0EB1AF108EF89F88DEE0DFF1D5D
:1018D000672D782DCE0149969B01285F3F4FDB0194
:1018E0004D91BD01DC014D93CD01AB01415051093A
:1018F000DA014C91442319F06217730781F718A29B
:10190000BE8AB9A21B861A861D8A1C8AD987C887F7
:1019100084E090E08B1991099D878C87DB8BCA8BC3
:101920009082DF011197AC9211971C92119780E879
:101930008C9311971C9257971C9211971C92B397F6
:10194000F983E8830115110519F0F801D183C083EB
:101950000FB6F8940F928091D5018F5F8093D501D7
:101960008091480190914901892B09F091C0D09351
:101970004901C09348018091D501813081F58EEAFB
:1019800091E00E94FA0587EB91E00E94FA0580EC55
:1019900091E00E94FA0589EC91E00E94FA0585EA3F
:1019A00091E00E94FA058CE991E00E94FA0583E932
:1019B00091E00E94FA058AE891E00E94FA0581E828
:1019C00091E00E94FA0585EA91E09093800180936E
:1019D0007F018CE991E090937E0180937D0180915D
:1019E000D3018F5F8093D301AE898091D2018A1792
:1019F00010F4A093D20129E02A9FD0011124A2550E
:101A0000BE4F11960D90BC91A02DBD83AC83149652
:101A10008D919C9115979F838E831496ED91FC91E7
:101A20001597CE0102969383828315969C938E938D
:101A30001497EE89E29FF0011124E255FE4FFB87D7
:101A4000EA8780818F5F80830F900FBE8091D401E1
:101A5000882351F0E0914801F091490196898E89DF
:101A6000981710F40E94080681E004C0C6010E9485
:101A7000650A8FEFDF91CF911F910F91FF90EF904B
:101A8000DF90CF90BF90AF909F908F907F90089500
:101A90008091D4018111A3CFE0914801F0914901D7
:101AA00096898E89891708F49ACFD0934901C093FB
:101AB000480195CF0F931F93CF93DF9300E611E07A
:101AC00020E040EC50E068E271E081EE9BE00E9493
:101AD000320C813009F0B3C00FB6F8940F928091A8
:101AE0006E0190916F01892B09F04FC085E591E05F
:101AF0000E94FA058CE491E00E94FA0585E591E0E8
:101B000090937301809372018CE491E09093710142
:101B10008093700181E590E00E94140CEC01009725
:101B200081F14F96998388838AE08B8F85E08C8F33
:101B30000FB6F8940F92888199812B8D4C8DBC0142
:101B4000249F600D711D11247D836C831A8E9B83ED
:101B50008A832150330B429FB001439F700D1124A3
:101B6000860F971F9F838E838FEF8D8F8E8FCE0171
:101B700008960E94FA05CE0141960E94FA050F9040
:101B80000FBED0936F01C0936E010F900FBE809176
:101B90006E0190916F01892B09F451C00EE511E09F
:101BA00023E045E550E06DE271E086E79AE00E94AF
:101BB000320C813009F043C0F8942FEF3FEF30939F
:101BC0006801209367018093D40110926C011092F8
:101BD0006B01A89588E190EC0FB6F894A8958093D6
:101BE00060000FBE90936000A0914801B091490140
:101BF000CD91CDBFDD91DEBFFF91EF91DF91CF9110
:101C0000BF91AF919F918F917F916F915F914F9114
:101C10003F912F911F910F91FF90EF90DF90CF9008
:101C2000BF90AF909F908F907F906F905F904F90FC
:101C30003F902F901F900F900FBE0F9008958091AE
:101C40000001DF91CF911F910F9108950E949E088E
:101C50001895789484B5826084BD84B5816084BD14
:101C600085B5826085BD85B5816085BD80916E003A
:101C7000816080936E00109281008091810082606B
:101C800080938100809181008160809381008091A8
:101C900080008160809380008091B1008460809397
:101CA000B1008091B00081608093B00080917A0093
:101CB000846080937A0080917A00826080937A00B9
:101CC00080917A00816080937A0080917A008068A8
:101CD00080937A001092C100209105013091060195
:101CE0008FEF98E0821B930B909302018093010188
:101CF0000E9482020E945A0D0E948202C0E0D0E03F
:101D00002097F1F30E946601FBCFE6EDF1E013822C
:101D1000128288EE93E0A0E0B0E084839583A683EE
:101D2000B7838BE091E09183808385EC90E0958789
:101D3000848784EC90E09787868780EC90E0918B95
:101D4000808B81EC90E0938B828B82EC90E0958B82
:101D5000848B86EC90E0978B868B118E128E138E7F
:101D6000148E08950F931F93CF93DF9382309105C4
:101D700010F482E090E0E0917502F091760230E09C
:101D800020E0B0E0A0E0309799F42115310509F486
:101D90004AC0281B390B24303105D8F58A819B8134
:101DA0006115710589F1FB0193838283FE0111C0E6
:101DB000408151810281138148175907E0F048178B
:101DC000590799F4109761F012960C931297139695
:101DD0001C933296CF01DF91CF911F910F910895FF
:101DE0000093750210937602F4CF2115310551F05E
:101DF0004217530738F0A901DB019A01BD01DF0149
:101E0000F801C1CFEF01F9CF90937602809375026C
:101E1000CDCFFE01E20FF31F819391932250310940
:101E200039832883D7CF2091730230917402232BFA
:101E300041F4209103013091040130937402209306
:101E4000730220910101309102012115310541F405
:101E50002DB73EB74091050150910601241B350B6B
:101E6000E0917302F0917402E217F307A0F42E1BC5
:101E70003F0B2817390778F0AC014E5F5F4F2417EE
:101E8000350748F04E0F5F1F509374024093730262
:101E9000819391939FCFF0E0E0E09CCFCF93DF93CD
:101EA0000097E9F0FC01329713821282A09175022B
:101EB000B0917602ED0130E020E01097A1F420818E
:101EC0003181820F931F2091730230917402281781
:101ED000390709F061C0F0937402E0937302DF9157
:101EE000CF910895EA01CE17DF07E8F54A815B81BB
:101EF0009E0141155105B1F7E901FB83EA83499140
:101F00005991C40FD51FEC17FD0761F480819181B1
:101F10000296840F951FE9019983888382819381BA
:101F20009B838A83F0E0E0E012968D919C91139759
:101F30000097B9F52D913C911197CD010296820F32
:101F4000931F20917302309174022817390739F6D4
:101F5000309751F51092760210927502B093740288
:101F6000A0937302BCCFD383C28340815181840F7D
:101F7000951FC817D90761F44E5F5F4F888199811B
:101F8000480F591F518340838A819B8193838283A9
:101F90002115310509F0B0CFF0937602E093750278
:101FA0009ECFFD01DC01C0CF13821282D7CFA1E208
:101FB0001A2EAA1BBB1BFD010DC0AA1FBB1FEE1FC3
:101FC000FF1FA217B307E407F50720F0A21BB30B0E
:101FD000E40BF50B661F771F881F991F1A9469F78A
:101FE00060957095809590959B01AC01BD01CF01E6
:101FF0000895EE0FFF1F0590F491E02D0994FB0169
:10200000DC0102C001900D9241505040D8F7089574
:10201000DC0101C06D9341505040E0F70895F89401
:10202000FFCF03000077028000000000009501F25E
:10203000001F01E20150012E0142010D0A0054610E
:10204000736B32005461736B310049444C4500544A
:102050006D7220537663007461736B310074617329
:0A2060006B32007461736B330000F3
:107E0000112484B714BE81FFF0D085E080938100F7
:107E100082E08093C00088E18093C10086E0809377
:107E2000C20080E18093C4008EE0C9D0259A86E02C
:107E300020E33CEF91E0309385002093840096BBD3
:107E4000B09BFECF1D9AA8958150A9F7CC24DD24C4
:107E500088248394B5E0AB2EA1E19A2EF3E0BF2EE7
:107E6000A2D0813461F49FD0082FAFD0023811F036
:107E7000013811F484E001C083E08DD089C08234E0
:107E800011F484E103C0853419F485E0A6D080C0E4
:107E9000853579F488D0E82EFF2485D0082F10E0AE
:107EA000102F00270E291F29000F111F8ED06801E7
:107EB0006FC0863521F484E090D080E0DECF843638
:107EC00009F040C070D06FD0082F6DD080E0C81688
:107ED00080E7D80618F4F601B7BEE895C0E0D1E017
:107EE00062D089930C17E1F7F0E0CF16F0E7DF06D8
:107EF00018F0F601B7BEE89568D007B600FCFDCFD4
:107F0000A601A0E0B1E02C9130E011968C91119780
:107F100090E0982F8827822B932B1296FA010C0160
:107F200087BEE89511244E5F5F4FF1E0A038BF0790
:107F300051F7F601A7BEE89507B600FCFDCF97BE46
:107F4000E89526C08437B1F42ED02DD0F82E2BD052
:107F50003CD0F601EF2C8F010F5F1F4F84911BD097
:107F6000EA94F801C1F70894C11CD11CFA94CF0C13
:107F7000D11C0EC0853739F428D08EE10CD085E9AC
:107F80000AD08FE07ACF813511F488E018D01DD067
:107F900080E101D065CF982F8091C00085FFFCCF94
:107FA0009093C60008958091C00087FFFCCF809118
:107FB000C00084FD01C0A8958091C6000895E0E648
:107FC000F0E098E1908380830895EDDF803219F02E
:107FD00088E0F5DFFFCF84E1DECF1F93182FE3DFCA
:107FE0001150E9F7F2DF1F91089580E0E8DFEE27F6
:047FF000FF270994CA
:027FFE00040479
:00000001FF
