:020000040000FA
:100000000C945C000C948A010C9463010C947900AC
:100010000C9479000C9479000C948C0B0C9479005E
:100020000C9479000C9479000C9479000C9479006C
:100030000C9479000C9479000C9479000C9479005C
:100040000C9419010C9479000C9479000C947900AB
:100050000C9479000C9479000C9479000C9479003C
:100060000C9479000C947900000000002400270013
:100070002A0000000000250028002B0004040404CE
:100080000404040402020202020203030303030342
:10009000010204081020408001020408102001021F
:1000A00004081020000000080002010000030407FB
:1000B000000000000000000011241FBECFEFD8E0B8
:1000C000DEBFCDBF11E0A0E0B1E0EAEDFBE102C090
:1000D00005900D92A831B107D9F721E0A8E1B1E070
:1000E00001C01D92AB3AB207E1F70E948F0B0C944E
:1000F000EB0D0C940000E1EBF0E02491EDE9F0E071
:100100009491E9E8F0E0E491EE23C9F0222339F07C
:10011000233001F1A8F4213019F1223029F1F0E067
:10012000EE0FFF1FEE58FF4FA591B4912FB7F89433
:10013000EC91811126C090959E239C932FBF08952A
:100140002730A9F02830C9F0243049F720918000E9
:100150002F7D03C0209180002F7720938000DFCF78
:1001600024B52F7724BDDBCF24B52F7DFBCF209185
:10017000B0002F772093B000D2CF2091B0002F7D18
:10018000F9CF9E2BDACF08959091440181E091112F
:1001900080E0809344010895CF93DF93EDE9F0E090
:1001A0002491E9E8F0E08491882399F090E0880FA9
:1001B000991FFC01E859FF4FA591B491FC01EE583D
:1001C000FF4F859194918FB7F894EC91E22BEC93CB
:1001D0008FBFE2E9F0E02491EEE7F0E0849188231C
:1001E000C1F090E0880F991FFC01E859FF4FC591BD
:1001F000D491FC01EE58FF4FA591B4919FB7F894AC
:100200003881822F809583238883EC91E22BEC93B5
:100210009FBF84EC90E09093010180930001809156
:1002200069008C7F816080936900E89ADF91CF91AB
:1002300008951F920F920FB60F9211242F933F93A0
:100240008F939F93AF93BF9380914A0190914B01FD
:10025000A0914C01B0914D013091490123E0230F51
:100260002D3758F50196A11DB11D209349018093AA
:100270004A0190934B01A0934C01B0934D018091A2
:10028000450190914601A0914701B0914801019626
:10029000A11DB11D8093450190934601A093470194
:1002A000B0934801BF91AF919F918F913F912F9152
:1002B0000F900FBE0F901F90189526E8230F0296FF
:1002C000A11DB11DD2CF1F920F920FB60F92112414
:1002D0002F933F934F935F936F937F938F939F934E
:1002E000AF93BF93EF93FF93E0910201F09103016D
:1002F0000995FF91EF91BF91AF919F918F917F9160
:100300006F915F914F913F912F910F900FBE0F9082
:100310001F9018951F920F920FB60F9211242F93D2
:100320003F934F935F936F937F938F939F93AF937D
:10033000BF93EF93FF93E0910001F09101010995C4
:10034000FF91EF91BF91AF919F918F917F916F91AD
:100350005F914F913F912F910F900FBE0F901F9083
:100360001895E0915001F09151018081811107C0F1
:100370008FEF9FEF90934101809340010895E091AA
:100380005001F09151010580F681E02D808191812D
:10039000F1CFCF93DF93DC011596ED91FC910680B0
:1003A000F781E02DA489B5898685978520893189D3
:1003B000EC013D832C83C089D1899B838A83CF0143
:1003C0000C9611962D913C9112972817390721F41C
:1003D0001296DC93CE931197158A148A2C91215092
:1003E0002C9320911F01211157C0A285B3858481D0
:1003F000958126813781EC013D832C83C681D7818D
:100400009B838A83CF01029611962D913C9112977E
:100410002817390721F41296DC93CE93119713868F
:1004200012862C9121502C93C6892091A3012C1760
:1004300010F4C093A30129E02C9FE0011124C158BE
:10044000DE4F0980DA81C02DD583C4834C815D8164
:1004500057834683AC81BD8113969C938E931297EC
:100460009D838C83A689A29FD0011124A158BE4FE1
:10047000B387A2878C918F5F8C93A0911801B09164
:100480001901968956968C91891730F581E08093F1
:100490001E01DF91CF910895A0916501B091660191
:1004A000B787A68714962D913C911597318B208B99
:1004B0001496CD91DC9115979B838A8315969C9316
:1004C0008E93149784E691E0958B848B80916401E0
:1004D0008F5F80936401D1CF80E0DBCF0FB6F894BB
:1004E0000F9280913E0190913F010F900FBE0895B1
:1004F00080911F018F5F80931F0108950FB6F894BC
:100500000F92FC01928D0F900FBE81E0911180E05F
:100510000895EF92FF920F931F93CF93DF93EC0117
:100520000FB6F8940F921E8D7C0181E1E80EF11C4C
:1005300001E01116D4F08FEF8E8F0F900FBE0FB623
:10054000F8940F921D8D7E0188E0E80EF11C01E009
:100550001116B4F08FEF8D8F0F900FBEDF91CF91FA
:100560001F910F91FF90EF9008958989882319F3C7
:10057000C7010E94C901811100931E011150D9CFFA
:100580008885882339F3C7010E94C901811100932E
:100590001E011150DDCFCF93DF93FC01A085B18503
:1005A0008281938124813581EC013D832C83C48138
:1005B000D5819B838A8311968D919C9112978E177A
:1005C0009F0721F41296DC93CE9311971186108623
:1005D0008C9181508C938C91DF91CF9108950F93E2
:1005E0001F93CF93DF938C01FB0180819181D80110
:1005F00013968F3F9807F1F4E801AF81B885129602
:100600008D919C91139793838283EC01FD83EC83FE
:10061000B583A4831396FC93EE93129711870087FA
:10062000F80180818F5F8083DF91CF911F910F91BF
:100630000895D90112962D913C911397E9014881B3
:10064000598184179507A8F7DACFFC017383628379
:10065000918780874617570790F0421B530B84857C
:10066000958548175907C8F4BF016E5F7F4F809189
:100670002401909125010E94EF0280E00895421725
:10068000530718F46217730740F4BF016E5F7F4F82
:100690008091260190912701EECF81E00895EF929D
:1006A000FF920F931F93CF93DF93EC018B017A019D
:1006B0006C857D85600F711F9801A701CE010E9496
:1006C0002503811107C0DF91CF911F910F91FF90FA
:1006D000EF9008958C859D85080F191FE889F98989
:1006E000CE010995E5CFEF92FF920F931F93CF9321
:1006F000DF938C017B01E0912601F09127010580B9
:10070000F681E02DC681D781CE0102960E94CB02F0
:100710008A8982FF0FC0A701B801CE010E944F0352
:10072000E889F989CE01DF91CF911F910F91FF9058
:10073000EF9009948E7F8A8BF3CFE0912601F091A0
:100740002701808181110DC08091240190912501A4
:100750009093270180932601F0932501E0932401D3
:1007600008950580F681E02D6FEF7FEF8081918104
:100770000E947303E2CFFF920F931F93CF93DF93F7
:10078000EC01F62E00913E0110913F01809118017D
:100790009091190102960E94CB02CF3FDC07E9F548
:1007A000FF20D9F1E0915301F0915401A09118017B
:1007B000B09119011596FC93EE931497A09118012E
:1007C000B09119018481958117969C938E93169709
:1007D0008091180190911901A481B5810296139618
:1007E0009C938E9312978091180190911901029613
:1007F00095838483E0911801F091190182E591E0DD
:1008000093878287809152018F5F80935201DF919D
:10081000CF911F910F91FF900895C00FD11FE091CC
:100820001801F0911901D383C2836091180170916E
:100830001901C017D10768F480914E0190914F01C2
:100840006E5F7F4FDF91CF911F910F91FF900C94BE
:10085000EF0280915001909151016E5F7F4F0E9495
:10086000EF028091400190914101C817D90778F6B5
:10087000D0934101C0934001CACFFC0103969283FB
:1008800081832FEF3FEF3483238396838583908783
:100890008783108208950F920FB6F8940F921F92DB
:1008A00011242F923F924F925F926F927F928F927C
:1008B0009F92AF92BF92CF92DF92EF92FF920F93EF
:1008C0001F932F933F934F935F936F937F938F93D8
:1008D0009F93AF93BF93CF93DF93EF93FF93A09139
:1008E0001801B09119010DB60D920EB60D928091BE
:1008F0001F01882321F081E080931E015DC01092CA
:100900001E01A0911801B0911901E0911801F09118
:1009100019012D913C918789908D82179307A8F03A
:1009200080911801909119018091180190911901FD
:10093000259A2D9A2FEF87EA91E62150804090402A
:10094000E1F700C000001D9AF5CF2091A30189E0D6
:1009500001C02150422F50E0849FF001859FF00D8F
:100960001124E158FE4F9081992399F3A181B2811E
:1009700012966D917C9172836183289FC00111242E
:100980008E579E4F6817790721F48581968192834F
:10099000818389E0849FF001859FF00D1124E15847
:1009A000FE4F0180F281E02D86819781909319019D
:1009B000809318012093A301A0911801B09119010F
:1009C000CD91CDBFDD91DEBFFF91EF91DF91CF9152
:1009D000BF91AF919F918F917F916F915F914F9157
:1009E0003F912F911F910F91FF90EF90DF90CF904B
:1009F000BF90AF909F908F907F906F905F904F903F
:100A00003F902F901F900F900FBE0F9008958F92E0
:100A10009F92BF92CF92DF92EF92FF920F931F931C
:100A2000CF93DF930FB6F8940F9280911F018150FE
:100A300080931F0180911F01882379F080E00F903F
:100A40000FBEDF91CF911F910F91FF90EF90DF903C
:100A5000CF90BF909F908F9008958091A60188239A
:100A600069F3E0906901F0906A01F0E0E0E039E0BC
:100A700041E08091640181115EC0EF2B11F00E9472
:100A8000B101E0901C01F0901D01E114F10409F4A2
:100A90007DC189E0D82ECC24C3940FEF1FEF809145
:100AA0001F01811161C1C0913E01D0913F014E01F2
:100AB0008FEF881A980A90923F0180923E0181142C
:100AC0009104B9F4809150019091510120914E010F
:100AD00030914F01309351012093500190934F0179
:100AE00080934E01809123018F5F809323010E94A8
:100AF000B1018091400190914101B12C8816990675
:100B000008F026C1E0911801F0911901E689DE9EF6
:100B1000F0011124E158FE4F8081823010F0BB2497
:100B2000B39480911E01811103C0BB2009F425C13B
:100B3000C0921E0122C1D7011696ED91FC91A489A5
:100B4000B5896685778580899189EB019D838C8342
:100B500080899189EC017B836A83BF01645F7F4F49
:100B600011960D911C9112970617170721F41296F2
:100B70009C938E931197158A148A8C9181508C9333
:100B8000A285B3858481958166817781EC017D831F
:100B90006C8366817781EB019B838A83CF01029608
:100BA00011960D911C9112970817190721F41296AE
:100BB0007C936E931197138612862C9121502C935F
:100BC000A6892091A3012A1710F4A093A3013A9FAC
:100BD000D0011124A158BE4F11960D90BC91A02DAB
:100BE000B583A48314966D917C9115977783668362
:100BF00014966D917C911597EB019B838A831596D2
:100C00009C938E9314979689939FD0011124A15899
:100C1000BE4FB387A2878C918F5F8C93A0911801F0
:100C2000B091190156968C91891708F022CF409304
:100C30001E011FCFE0915001F09151010580F68116
:100C4000E02D0680F781E02D828193818816990638
:100C500028F4909341018093400154CFC285D385FD
:100C60008481958126813781DC0115963C932E93F2
:100C7000149726813781D90113969C938E931297EE
:100C8000CF01029649815A814817590711F43A83D6
:100C9000298313861286288121502883A489B58947
:100CA0001097F9F02685378540895189E9015D83E0
:100CB0004C8340895189EA013B832A8311966D91C7
:100CC0007C9112979F01245F3F4F6217730721F4B5
:100CD00012965C934E931197158A148A2C91215089
:100CE0002C93A6892091A3012A1710F4A093A301A5
:100CF000DA9ED0011124A158BE4F11960D90BC91DF
:100D0000A02DB583A48314962D913C91159737831C
:100D1000268314962D913C911597E9019B838A8334
:100D200015969C938E93149796899D9DD0011124BE
:100D3000A158BE4FB387A2878C918F5F8C93E091AF
:100D40001801F09119018689891710F4BB24B39416
:100D5000E0915001F0915101808181116BCF10938E
:100D6000410100934001CECE80911C0190911D0164
:100D7000019690931D0180931C01D1E0ED1AF108BA
:100D800009F08DCE10921D0110921C0180911E0160
:100D9000882309F453CE0E944B0481E050CE0F9279
:100DA0000FB6F8940F921F9211242F923F924F92F8
:100DB0005F926F927F928F929F92AF92BF92CF92EB
:100DC000DF92EF92FF920F931F932F933F934F93D6
:100DD0005F936F937F938F939F93AF93BF93CF93C3
:100DE000DF93EF93FF93A0911801B09119010DB615
:100DF0000D920EB60D9213BE80911F018111F9C0A4
:100E000080913E0190913F01019690933F01809324
:100E10003E01009781F520915001309151014091A0
:100E20004E0150914F015093510140935001309326
:100E30004F0120934E01209123012F5F2093230126
:100E4000E0915001F09151012081211107C02FEF55
:100E50003FEF30934101209340010DC0E0915001DC
:100E6000F09151010580F681E02D20813181309390
:100E700041012093400120914001309141018217AE
:100E8000930710F420E0A1C020E039E0D32EE091D8
:100E90005001F09151013081311107C08FEF9FEF68
:100EA000909341018093400190C0E0915001F091F6
:100EB00051010580F681E02D0680F781E02D428109
:100EC00053818417950728F45093410140934001C2
:100ED0007CC0A285B3854481558166817781EA0112
:100EE0007D836C8366817781EB015B834A83AF01ED
:100EF0004E5F5F4F11960D911C91129704171507C5
:100F000021F412967C936E931197138612863C916E
:100F100031503C93A489B5891097F9F0668577859F
:100F200000891189EB011D830C8300891189E80177
:100F30007B836A831196ED90FC901297BF01645FEA
:100F40007F4FE616F70621F412961C930E93119725
:100F5000158A148A3C9131503C93A6893091A301A3
:100F60003A1710F4A093A301DA9ED0011124A158DE
:100F7000BE4F11960D90BC91A02DB583A4831496FD
:100F80006D917C9115977783668314966D917C9112
:100F90001597EB015B834A8315965C934E931497E8
:100FA00046894D9DD0011124A158BE4FB387A28719
:100FB0003C913F5F3C93E0911801F0911901368913
:100FC000341708F064CF21E062CFE0911801F0916E
:100FD0001901E689D9E0ED9FF0011124E158FE4F97
:100FE0008081823008F021E080911E0181110EC0C5
:100FF0000AC080911C0190911D01019690931D01E2
:1010000080931C0168C0222309F465C080911F01F0
:10101000882321F081E080931E015DC010921E01A3
:10102000A0911801B0911901E0911801F0911901F6
:101030002D913C918789908D82179307A8F080911C
:101040001801909119018091180190911901259A28
:101050002D9A2FEF87EA91E6215080409040E1F7EA
:1010600000C000001D9AF5CF2091A30189E001C0C6
:101070002150422F50E0849FF001859FF00D1124F4
:10108000E158FE4F9081992399F3A181B281129684
:101090006D917C9172836183289FC00111248E57CA
:1010A0009E4F6817790721F4858196819283818309
:1010B00089E0849FF001859FF00D1124E158FE4FD7
:1010C0000180F281E02D86819781909319018093B0
:1010D00018012093A301A0911801B0911901CD919D
:1010E000CDBFDD91DEBFFF91EF91DF91CF91BF9139
:1010F000AF919F918F917F916F915F914F913F91B0
:101100002F911F910F91FF90EF90DF90CF90BF90A4
:10111000AF909F908F907F906F905F904F903F9097
:101120002F901F900F900FBE0F900895CF93DF93D5
:10113000009751F0EC010E947802CE010E944C0D04
:10114000DF91CF910C940705DF91CF910895CF9354
:10115000DF9300D000D01F92CDB7DEB7E09126011B
:10116000F09127011081F12CE12C112329F0058049
:10117000F681E02DE080F1800E9478020E946E02EC
:101180006C018091210190912201C816D90608F0C6
:1011900085C00E949D03D0922201C09221010E942D
:1011A000070500913C0110913D010FB6F8940F9294
:1011B000D8015A96FC905A97FF2009F430C15C96EA
:1011C0004C915C97442301F150E016968D919C91CF
:1011D0001797840F951F17969C938E9316971496C6
:1011E0002D913C9115978217930738F08D919C9122
:1011F000119717969C938E931697F80166817781C5
:10120000CE0101960E94DB0DFA94D8015A96FC9209
:101210005A9718968C91882339F0C80108960E9435
:10122000C90181110E944B040F900FBED980D7FCD9
:10123000B8CF0C811D81D8011A968D919C91892B74
:1012400021F0C80102960E94CB020E946E027C012E
:101250008091210190912201E816F90610F40E9474
:101260009D03F0922201E0922101EFEFED0DE930B4
:1012700008F097CF0E2E000CFF0BEB5BF64FD8015A
:1012800052968C9152970C94D50DC809C8090B0A37
:10129000F309050AC809C8090B0AF309D09222010B
:1012A000C0922101112351F0CE14DF0470F00E948E
:1012B0000705B601C7010E94730373CFE0912401B3
:1012C000F0912501808161E0811160E000913C0195
:1012D00010913D010FB6F8940F92D8015D968C9154
:1012E0005D978F3F11F45D961C92F801868D8F3FBC
:1012F00009F4168E0F900FBED8015A968C915A970A
:1013000081113CC05296ED91FC91A0911801B091D1
:1013100019011F96FC93EE931E97A0911801B091AE
:1013200019018481958151969C938E935097809159
:10133000180190911901A481B5810C9613969C9384
:101340008E93129780911801909119010C969583B4
:101350008483E0911801F0911901C8014196958BA1
:10136000848BF80181898F5F818BC7018C199D095E
:10137000662311F08FEF9FEF0E94BB03C8010E940C
:1013800089020E94070581110CCF0E944B0409CFEE
:101390008160F801828BCA80DB80648575856C0D65
:1013A0007D1D9601A701C8010E942503882309F429
:1013B000F8CED80152968C91529782FF10C01C969D
:1013C0006D917C916C0D7D1DA701C8010E944F039A
:1013D000D8015096ED91FC91C8010995E2CE8E7F1F
:1013E000F801828BF5CF816052968C9352976A8177
:1013F0007B811D967C936E931C976E0D7F1D9701CC
:10140000A701C8010E942503CCCE81FD04C0C801FC
:101410000E949608C6CE8E7FF801828BC2CE0F90B6
:101420000FBE9CCE00E010E080912001811110C021
:1014300080917F01823010F00E944B048091440122
:101440000E947B000115110579F30E940000ECCF8A
:101450000FB6F8940F92E0916001F0916101C6819E
:10146000D781CE0102960E94CB028091A6018150C5
:101470008093A601809120018150809320010F90DC
:101480000FBE8F89988D0E949608CE010E94960803
:10149000CBCFCF93DF93EC010E947802CE010E9464
:1014A000B00CEC010E940705209769F4259A2D9A4B
:1014B0002FEF80E792E0215080409040E1F700C09C
:1014C00000001D9AF5CFCE01DF91CF9108957F9254
:1014D0008F929F92AF92BF92CF92DF92EF92FF9244
:1014E0000F931F93CF93DF93982EA92E762E872EDE
:1014F0007A01B22ECA010E94490A6C01892B09F4B3
:10150000EAC088E290E00E94490AEC01892B09F4C4
:10151000DFC088E2DE011D928A95E9F7D88ECF8A76
:10152000A70165EA70E0C6010E94E40DB1E0EB1A84
:10153000F108EF89F88DEE0DFF1D672D782DCE0196
:1015400049969B01285F3F4FDB014D91BD01DC01B6
:101550004D93CD01AB0141505109DA014C91442327
:1015600019F06217730781F718A2BE8AB9A21B8609
:101570001A861D8A1C8AD987C88784E090E08B1957
:1015800091099D878C87DB8BCA8B9082DF01119735
:10159000AC9211971C92119780E88C9311971C9232
:1015A00057971C9211971C92B397F983E883F8011F
:1015B000D183C0830FB6F8940F928091A6018F5FFC
:1015C0008093A6018091180190911901892B09F04F
:1015D00091C0D0931901C09318018091A601813068
:1015E00081F58FE791E00E943D0488E891E00E9438
:1015F0003D0481E991E00E943D048AE991E00E9466
:101600003D0486E791E00E943D048DE691E00E9452
:101610003D0484E691E00E943D048BE591E00E9448
:101620003D0482E591E00E943D0486E791E09093BD
:101630005101809350018DE691E090934F0180938A
:101640004E018091A4018F5F8093A401AE898091A7
:10165000A3018A1710F4A093A30129E02A9FD001C7
:101660001124A158BE4F11960D90BC91A02DBD83A1
:10167000AC8314968D919C9115979F838E831496BD
:10168000ED91FC911597CE01029693838283159676
:101690009C938E931497EE89E29FF0011124E158F8
:1016A000FE4FFB87EA8780818F5F80830F900FBE9C
:1016B0008091A501882351F0E0911801F091190162
:1016C00096898E89981710F40E944B0481E004C01B
:1016D000C6010E9496088FEFDF91CF911F910F9165
:1016E000FF90EF90DF90CF90BF90AF909F908F9042
:1016F0007F9008958091A5018111A3CFE0911801F9
:10170000F091190196898E89891708F49ACFD093A0
:101710001901C093180195CF0E94CF0618957894AF
:1017200084B5826084BD84B5816084BD85B58260E6
:1017300085BD85B5816085BD80916E008160809397
:101740006E00109281008091810082608093810000
:101750008091810081608093810080918000816010
:10176000809380008091B10084608093B10080916B
:10177000B00081608093B00080917A008460809393
:101780007A0080917A00826080937A0080917A005A
:10179000816080937A0080917A00806880937A00DB
:1017A0001092C1002091090130910A018FEF98E059
:1017B000821B930B90930601809305010E94CC003D
:1017C00002E411E020E040EC50E06BE071E082E1E7
:1017D0009AE00E94670A813009F0B3C00FB6F8940E
:1017E0000F9280913C0190913D01892B09F04FC0EF
:1017F00081E391E00E943D0488E291E00E943D0473
:1018000081E391E0909327018093260188E291E0A3
:10181000909325018093240181E590E00E94490A7C
:10182000EC01009781F14F96998388838AE08B8F32
:1018300085E08C8F0FB6F8940F92888199812B8D5B
:101840004C8DBC01249F600D711D11247D836C8320
:101850001A8E9B838A832150330B429FB001439F92
:10186000700D1124860F971F9F838E838FEF8D8FAE
:101870008E8FCE0108960E943D04CE0141960E94B3
:101880003D040F900FBED0933D01C0933C010F90DB
:101890000FBE80913C0190913D01892B09F451C00C
:1018A0000AE311E023E045E550E060E171E087EAFA
:1018B00098E00E94670A813009F043C0F8942FEF46
:1018C0003FEF30934101209340018093A501109296
:1018D0003F0110923E01A89588E190EC0FB6F89474
:1018E000A895809360000FBE90936000A0911801AE
:1018F000B0911901CD91CDBFDD91DEBFFF91EF9188
:10190000DF91CF91BF91AF919F918F917F916F9117
:101910005F914F913F912F911F910F91FF90EF9009
:10192000DF90CF90BF90AF909F908F907F906F90FF
:101930005F904F903F902F901F900F900FBE0F9091
:101940000895809104010E94CC00C0E0D0E0809115
:1019500044010E947B002097D1F30E940000F7CF42
:101960000F931F93CF93DF938230910510F482E0A1
:1019700090E0E091A901F091AA0130E020E0B0E010
:10198000A0E0309799F42115310509F44AC0281BCD
:10199000390B24303105D8F58A819B816115710599
:1019A00089F1FB0193838283FE0111C04081518143
:1019B0000281138148175907E0F04817590799F435
:1019C000109761F012960C93129713961C9332960F
:1019D000CF01DF91CF911F910F9108950093A9013D
:1019E0001093AA01F4CF2115310551F04217530786
:1019F00038F0A901DB019A01BD01DF01F801C1CF77
:101A0000EF01F9CF9093AA018093A901CDCFFE01F8
:101A1000E20FF31F81939193225031093983288378
:101A2000D7CF2091A7013091A801232B41F4209119
:101A30000701309108013093A8012093A70120915C
:101A40000501309106012115310541F42DB73EB74E
:101A50004091090150910A01241B350BE091A70127
:101A6000F091A801E217F307A0F42E1B3F0B2817F3
:101A7000390778F0AC014E5F5F4F2417350748F007
:101A80004E0F5F1F5093A8014093A701819391933C
:101A90009FCFF0E0E0E09CCFCF93DF930097E9F099
:101AA000FC01329713821282A091A901B091AA0180
:101AB000ED0130E020E01097A1F420813181820F08
:101AC000931F2091A7013091A8012817390709F029
:101AD00061C0F093A801E093A701DF91CF91089531
:101AE000EA01CE17DF07E8F54A815B819E014115C7
:101AF0005105B1F7E901FB83EA8349915991C40F7C
:101B0000D51FEC17FD0761F4808191810296840F47
:101B1000951FE90199838883828193819B838A83BE
:101B2000F0E0E0E012968D919C9113970097B9F543
:101B30002D913C911197CD010296820F931F209118
:101B4000A7013091A8012817390739F6309751F5C8
:101B50001092AA011092A901B093A801A093A70125
:101B6000BCCFD383C28340815181840F951FC81796
:101B7000D90761F44E5F5F4F88819981480F591FE3
:101B8000518340838A819B81938382832115310510
:101B900009F0B0CFF093AA01E093A9019ECFFD0117
:101BA000DC01C0CF13821282D7CFEE0FFF1F05904A
:101BB000F491E02D0994FB01DC0102C001900D922B
:101BC00041505040D8F70895DC0101C06D93415059
:101BD0005040E0F70895F894FFCFC300C30003001E
:101BE00000AB01800049444C4500546D722053768F
:021BF000630090
:107E0000112484B714BE81FFF0D085E080938100F7
:107E100082E08093C00088E18093C10086E0809377
:107E2000C20080E18093C4008EE0C9D0259A86E02C
:107E300020E33CEF91E0309385002093840096BBD3
:107E4000B09BFECF1D9AA8958150A9F7CC24DD24C4
:107E500088248394B5E0AB2EA1E19A2EF3E0BF2EE7
:107E6000A2D0813461F49FD0082FAFD0023811F036
:107E7000013811F484E001C083E08DD089C08234E0
:107E800011F484E103C0853419F485E0A6D080C0E4
:107E9000853579F488D0E82EFF2485D0082F10E0AE
:107EA000102F00270E291F29000F111F8ED06801E7
:107EB0006FC0863521F484E090D080E0DECF843638
:107EC00009F040C070D06FD0082F6DD080E0C81688
:107ED00080E7D80618F4F601B7BEE895C0E0D1E017
:107EE00062D089930C17E1F7F0E0CF16F0E7DF06D8
:107EF00018F0F601B7BEE89568D007B600FCFDCFD4
:107F0000A601A0E0B1E02C9130E011968C91119780
:107F100090E0982F8827822B932B1296FA010C0160
:107F200087BEE89511244E5F5F4FF1E0A038BF0790
:107F300051F7F601A7BEE89507B600FCFDCF97BE46
:107F4000E89526C08437B1F42ED02DD0F82E2BD052
:107F50003CD0F601EF2C8F010F5F1F4F84911BD097
:107F6000EA94F801C1F70894C11CD11CFA94CF0C13
:107F7000D11C0EC0853739F428D08EE10CD085E9AC
:107F80000AD08FE07ACF813511F488E018D01DD067
:107F900080E101D065CF982F8091C00085FFFCCF94
:107FA0009093C60008958091C00087FFFCCF809118
:107FB000C00084FD01C0A8958091C6000895E0E648
:107FC000F0E098E1908380830895EDDF803219F02E
:107FD00088E0F5DFFFCF84E1DECF1F93182FE3DFCA
:107FE0001150E9F7F2DF1F91089580E0E8DFEE27F6
:047FF000FF270994CA
:027FFE00040479
:00000001FF
